{
  "_format": "hh-sol-artifact-1",
  "contractName": "FireRangers",
  "sourceName": "contracts/FireRangers.sol",
  "abi": [
    {
      "inputs": [],
      "stateMutability": "nonpayable",
      "type": "constructor"
    },
    {
      "anonymous": false,
      "inputs": [
        {
          "indexed": true,
          "internalType": "address",
          "name": "owner",
          "type": "address"
        },
        {
          "indexed": true,
          "internalType": "address",
          "name": "approved",
          "type": "address"
        },
        {
          "indexed": true,
          "internalType": "uint256",
          "name": "tokenId",
          "type": "uint256"
        }
      ],
      "name": "Approval",
      "type": "event"
    },
    {
      "anonymous": false,
      "inputs": [
        {
          "indexed": true,
          "internalType": "address",
          "name": "owner",
          "type": "address"
        },
        {
          "indexed": true,
          "internalType": "address",
          "name": "operator",
          "type": "address"
        },
        {
          "indexed": false,
          "internalType": "bool",
          "name": "approved",
          "type": "bool"
        }
      ],
      "name": "ApprovalForAll",
      "type": "event"
    },
    {
      "anonymous": false,
      "inputs": [
        {
          "indexed": true,
          "internalType": "address",
          "name": "from",
          "type": "address"
        },
        {
          "indexed": true,
          "internalType": "address",
          "name": "to",
          "type": "address"
        },
        {
          "indexed": true,
          "internalType": "uint256",
          "name": "tokenId",
          "type": "uint256"
        }
      ],
      "name": "Transfer",
      "type": "event"
    },
    {
      "inputs": [
        {
          "internalType": "address",
          "name": "to",
          "type": "address"
        },
        {
          "internalType": "uint256",
          "name": "tokenId",
          "type": "uint256"
        }
      ],
      "name": "approve",
      "outputs": [],
      "stateMutability": "nonpayable",
      "type": "function"
    },
    {
      "inputs": [
        {
          "internalType": "address",
          "name": "owner",
          "type": "address"
        }
      ],
      "name": "balanceOf",
      "outputs": [
        {
          "internalType": "uint256",
          "name": "",
          "type": "uint256"
        }
      ],
      "stateMutability": "view",
      "type": "function"
    },
    {
      "inputs": [
        {
          "internalType": "uint256",
          "name": "tokenId",
          "type": "uint256"
        }
      ],
      "name": "generateCharacter",
      "outputs": [
        {
          "internalType": "string",
          "name": "",
          "type": "string"
        }
      ],
      "stateMutability": "view",
      "type": "function"
    },
    {
      "inputs": [
        {
          "internalType": "uint256",
          "name": "tokenId",
          "type": "uint256"
        }
      ],
      "name": "getApproved",
      "outputs": [
        {
          "internalType": "address",
          "name": "",
          "type": "address"
        }
      ],
      "stateMutability": "view",
      "type": "function"
    },
    {
      "inputs": [
        {
          "internalType": "uint256",
          "name": "tokenId",
          "type": "uint256"
        }
      ],
      "name": "getLevels",
      "outputs": [
        {
          "internalType": "string",
          "name": "",
          "type": "string"
        }
      ],
      "stateMutability": "view",
      "type": "function"
    },
    {
      "inputs": [
        {
          "internalType": "uint256",
          "name": "tokenId",
          "type": "uint256"
        }
      ],
      "name": "getTokenURI",
      "outputs": [
        {
          "internalType": "string",
          "name": "",
          "type": "string"
        }
      ],
      "stateMutability": "view",
      "type": "function"
    },
    {
      "inputs": [
        {
          "internalType": "address",
          "name": "owner",
          "type": "address"
        },
        {
          "internalType": "address",
          "name": "operator",
          "type": "address"
        }
      ],
      "name": "isApprovedForAll",
      "outputs": [
        {
          "internalType": "bool",
          "name": "",
          "type": "bool"
        }
      ],
      "stateMutability": "view",
      "type": "function"
    },
    {
      "inputs": [],
      "name": "mint",
      "outputs": [],
      "stateMutability": "nonpayable",
      "type": "function"
    },
    {
      "inputs": [],
      "name": "name",
      "outputs": [
        {
          "internalType": "string",
          "name": "",
          "type": "string"
        }
      ],
      "stateMutability": "view",
      "type": "function"
    },
    {
      "inputs": [
        {
          "internalType": "uint256",
          "name": "tokenId",
          "type": "uint256"
        }
      ],
      "name": "ownerOf",
      "outputs": [
        {
          "internalType": "address",
          "name": "",
          "type": "address"
        }
      ],
      "stateMutability": "view",
      "type": "function"
    },
    {
      "inputs": [
        {
          "internalType": "address",
          "name": "from",
          "type": "address"
        },
        {
          "internalType": "address",
          "name": "to",
          "type": "address"
        },
        {
          "internalType": "uint256",
          "name": "tokenId",
          "type": "uint256"
        }
      ],
      "name": "safeTransferFrom",
      "outputs": [],
      "stateMutability": "nonpayable",
      "type": "function"
    },
    {
      "inputs": [
        {
          "internalType": "address",
          "name": "from",
          "type": "address"
        },
        {
          "internalType": "address",
          "name": "to",
          "type": "address"
        },
        {
          "internalType": "uint256",
          "name": "tokenId",
          "type": "uint256"
        },
        {
          "internalType": "bytes",
          "name": "data",
          "type": "bytes"
        }
      ],
      "name": "safeTransferFrom",
      "outputs": [],
      "stateMutability": "nonpayable",
      "type": "function"
    },
    {
      "inputs": [
        {
          "internalType": "address",
          "name": "operator",
          "type": "address"
        },
        {
          "internalType": "bool",
          "name": "approved",
          "type": "bool"
        }
      ],
      "name": "setApprovalForAll",
      "outputs": [],
      "stateMutability": "nonpayable",
      "type": "function"
    },
    {
      "inputs": [
        {
          "internalType": "bytes4",
          "name": "interfaceId",
          "type": "bytes4"
        }
      ],
      "name": "supportsInterface",
      "outputs": [
        {
          "internalType": "bool",
          "name": "",
          "type": "bool"
        }
      ],
      "stateMutability": "view",
      "type": "function"
    },
    {
      "inputs": [],
      "name": "symbol",
      "outputs": [
        {
          "internalType": "string",
          "name": "",
          "type": "string"
        }
      ],
      "stateMutability": "view",
      "type": "function"
    },
    {
      "inputs": [
        {
          "internalType": "uint256",
          "name": "",
          "type": "uint256"
        }
      ],
      "name": "tokenIdToLevels",
      "outputs": [
        {
          "internalType": "uint256",
          "name": "",
          "type": "uint256"
        }
      ],
      "stateMutability": "view",
      "type": "function"
    },
    {
      "inputs": [
        {
          "internalType": "uint256",
          "name": "tokenId",
          "type": "uint256"
        }
      ],
      "name": "tokenURI",
      "outputs": [
        {
          "internalType": "string",
          "name": "",
          "type": "string"
        }
      ],
      "stateMutability": "view",
      "type": "function"
    },
    {
      "inputs": [
        {
          "internalType": "uint256",
          "name": "tokenId",
          "type": "uint256"
        }
      ],
      "name": "train",
      "outputs": [],
      "stateMutability": "nonpayable",
      "type": "function"
    },
    {
      "inputs": [
        {
          "internalType": "address",
          "name": "from",
          "type": "address"
        },
        {
          "internalType": "address",
          "name": "to",
          "type": "address"
        },
        {
          "internalType": "uint256",
          "name": "tokenId",
          "type": "uint256"
        }
      ],
      "name": "transferFrom",
      "outputs": [],
      "stateMutability": "nonpayable",
      "type": "function"
    }
  ],
  "bytecode": "0x60806040523480156200001157600080fd5b50604080518082018252600c81526b466972652052616e6765727360a01b602080830191825283518085019094526002845261232960f11b90840152815191929162000060916000916200007f565b508051620000769060019060208401906200007f565b50505062000162565b8280546200008d9062000125565b90600052602060002090601f016020900481019282620000b15760008555620000fc565b82601f10620000cc57805160ff1916838001178555620000fc565b82800160010185558215620000fc579182015b82811115620000fc578251825591602001919060010190620000df565b506200010a9291506200010e565b5090565b5b808211156200010a57600081556001016200010f565b600181811c908216806200013a57607f821691505b602082108114156200015c57634e487b7160e01b600052602260045260246000fd5b50919050565b61206780620001726000396000f3fe608060405234801561001057600080fd5b50600436106101515760003560e01c806342842e0e116100cd578063b88d4fde11610081578063c87b56dd11610066578063c87b56dd146102bc578063e985e9c5146102cf578063f43785f91461030b57600080fd5b8063b88d4fde14610289578063c6a4342f1461029c57600080fd5b806370a08231116100b257806370a082311461024d57806395d89b411461026e578063a22cb4651461027657600080fd5b806342842e0e146102275780636352211e1461023a57600080fd5b80630daefed51161012457806323b872dd1161010957806323b872dd146101ee578063368004ed146102015780633bb3a24d1461021457600080fd5b80630daefed5146101d35780631249c58b146101e657600080fd5b806301ffc9a71461015657806306fdde031461017e578063081812fc14610193578063095ea7b3146101be575b600080fd5b6101696101643660046116f1565b61031e565b60405190151581526020015b60405180910390f35b6101866103bb565b6040516101759190611766565b6101a66101a1366004611779565b61044d565b6040516001600160a01b039091168152602001610175565b6101d16101cc3660046117ae565b610474565b005b6101866101e1366004611779565b6105ab565b6101d1610609565b6101d16101fc3660046117d8565b610652565b6101d161020f366004611779565b6106d9565b610186610222366004611779565b6107d7565b6101d16102353660046117d8565b6107fe565b6101a6610248366004611779565b610819565b61026061025b366004611814565b61087e565b604051908152602001610175565b610186610918565b6101d161028436600461182f565b610927565b6101d1610297366004611881565b610932565b6102606102aa366004611779565b60086020526000908152604090205481565b6101866102ca366004611779565b6109c0565b6101696102dd36600461195d565b6001600160a01b03918216600090815260056020908152604080832093909416825291909152205460ff1690565b610186610319366004611779565b610ad1565b60006001600160e01b031982167f80ac58cd00000000000000000000000000000000000000000000000000000000148061038157506001600160e01b031982167f5b5e139f00000000000000000000000000000000000000000000000000000000145b806103b557507f01ffc9a7000000000000000000000000000000000000000000000000000000006001600160e01b03198316145b92915050565b6060600080546103ca90611990565b80601f01602080910402602001604051908101604052809291908181526020018280546103f690611990565b80156104435780601f1061041857610100808354040283529160200191610443565b820191906000526020600020905b81548152906001019060200180831161042657829003601f168201915b5050505050905090565b600061045882610af3565b506000908152600460205260409020546001600160a01b031690565b600061047f82610819565b9050806001600160a01b0316836001600160a01b0316141561050e5760405162461bcd60e51b815260206004820152602160248201527f4552433732313a20617070726f76616c20746f2063757272656e74206f776e6560448201527f720000000000000000000000000000000000000000000000000000000000000060648201526084015b60405180910390fd5b336001600160a01b038216148061052a575061052a81336102dd565b61059c5760405162461bcd60e51b815260206004820152603e60248201527f4552433732313a20617070726f76652063616c6c6572206973206e6f7420746f60448201527f6b656e206f776e6572206e6f7220617070726f76656420666f7220616c6c00006064820152608401610505565b6105a68383610b57565b505050565b606060006105b883610ad1565b6040516020016105c891906119e7565b60405160208183030381529060405290506105e281610bd2565b6040516020016105f29190611d07565b604051602081830303815290604052915050919050565b610617600780546001019055565b600061062260075490565b905061062e3382610d26565b60008181526008602052604081205561064f8161064a816107d7565b610d40565b50565b61065c3382610de9565b6106ce5760405162461bcd60e51b815260206004820152602e60248201527f4552433732313a2063616c6c6572206973206e6f7420746f6b656e206f776e6560448201527f72206e6f7220617070726f7665640000000000000000000000000000000000006064820152608401610505565b6105a6838383610e67565b6000818152600260205260409020546001600160a01b031661073d5760405162461bcd60e51b815260206004820152601460248201527f546f6b656e4944206973206e6f742065786973740000000000000000000000006044820152606401610505565b3361074782610819565b6001600160a01b03161461079d5760405162461bcd60e51b815260206004820152601460248201527f596f7520617265206e6f7420616e204f776e65720000000000000000000000006044820152606401610505565b6000818152600860205260409020546107b7816001611d62565b6000838152600860205260409020556107d38261064a816107d7565b5050565b606060006107e483611041565b6107ed846105ab565b6040516020016105c8929190611d7a565b6105a683838360405180602001604052806000815250610932565b6000818152600260205260408120546001600160a01b0316806103b55760405162461bcd60e51b815260206004820152601860248201527f4552433732313a20696e76616c696420746f6b656e20494400000000000000006044820152606401610505565b60006001600160a01b0382166108fc5760405162461bcd60e51b815260206004820152602960248201527f4552433732313a2061646472657373207a65726f206973206e6f74206120766160448201527f6c6964206f776e657200000000000000000000000000000000000000000000006064820152608401610505565b506001600160a01b031660009081526003602052604090205490565b6060600180546103ca90611990565b6107d3338383611173565b61093c3383610de9565b6109ae5760405162461bcd60e51b815260206004820152602e60248201527f4552433732313a2063616c6c6572206973206e6f7420746f6b656e206f776e6560448201527f72206e6f7220617070726f7665640000000000000000000000000000000000006064820152608401610505565b6109ba84848484611242565b50505050565b60606109cb82610af3565b600082815260066020526040812080546109e490611990565b80601f0160208091040260200160405190810160405280929190818152602001828054610a1090611990565b8015610a5d5780601f10610a3257610100808354040283529160200191610a5d565b820191906000526020600020905b815481529060010190602001808311610a4057829003601f168201915b505050505090506000610a7b60408051602081019091526000815290565b9050805160001415610a8e575092915050565b815115610ac0578082604051602001610aa8929190611ec4565b60405160208183030381529060405292505050919050565b610ac9846112c0565b949350505050565b600081815260086020526040902054606090610aec81611041565b9392505050565b6000818152600260205260409020546001600160a01b031661064f5760405162461bcd60e51b815260206004820152601860248201527f4552433732313a20696e76616c696420746f6b656e20494400000000000000006044820152606401610505565b6000818152600460205260409020805473ffffffffffffffffffffffffffffffffffffffff19166001600160a01b0384169081179091558190610b9982610819565b6001600160a01b03167f8c5be1e5ebec7d5bd14f71427d1e84f3dd0314c0f7b2291e5b200ac8c7c3b92560405160405180910390a45050565b6060815160001415610bf257505060408051602081019091526000815290565b6000604051806060016040528060408152602001611ff26040913990506000600384516002610c219190611d62565b610c2b9190611f09565b610c36906004611f1d565b67ffffffffffffffff811115610c4e57610c4e61186b565b6040519080825280601f01601f191660200182016040528015610c78576020820181803683370190505b509050600182016020820185865187015b80821015610ce4576003820191508151603f8160121c168501518453600184019350603f81600c1c168501518453600184019350603f8160061c168501518453600184019350603f8116850151845350600183019250610c89565b5050600386510660018114610d005760028114610d1357610d1b565b603d6001830353603d6002830353610d1b565b603d60018303535b509195945050505050565b6107d382826040518060200160405280600081525061131d565b6000828152600260205260409020546001600160a01b0316610dca5760405162461bcd60e51b815260206004820152602e60248201527f45524337323155524953746f726167653a2055524920736574206f66206e6f6e60448201527f6578697374656e7420746f6b656e0000000000000000000000000000000000006064820152608401610505565b600082815260066020908152604090912082516105a692840190611642565b600080610df583610819565b9050806001600160a01b0316846001600160a01b03161480610e3c57506001600160a01b0380821660009081526005602090815260408083209388168352929052205460ff165b80610ac95750836001600160a01b0316610e558461044d565b6001600160a01b031614949350505050565b826001600160a01b0316610e7a82610819565b6001600160a01b031614610ef65760405162461bcd60e51b815260206004820152602560248201527f4552433732313a207472616e736665722066726f6d20696e636f72726563742060448201527f6f776e65720000000000000000000000000000000000000000000000000000006064820152608401610505565b6001600160a01b038216610f715760405162461bcd60e51b8152602060048201526024808201527f4552433732313a207472616e7366657220746f20746865207a65726f2061646460448201527f72657373000000000000000000000000000000000000000000000000000000006064820152608401610505565b610f7c600082610b57565b6001600160a01b0383166000908152600360205260408120805460019290610fa5908490611f3c565b90915550506001600160a01b0382166000908152600360205260408120805460019290610fd3908490611d62565b9091555050600081815260026020526040808220805473ffffffffffffffffffffffffffffffffffffffff19166001600160a01b0386811691821790925591518493918716917fddf252ad1be2c89b69c2b068fc378daa952ba7f163c4a11628f55a4df523b3ef91a4505050565b60608161108157505060408051808201909152600181527f3000000000000000000000000000000000000000000000000000000000000000602082015290565b8160005b81156110ab578061109581611f53565b91506110a49050600a83611f09565b9150611085565b60008167ffffffffffffffff8111156110c6576110c661186b565b6040519080825280601f01601f1916602001820160405280156110f0576020820181803683370190505b5090505b8415610ac957611105600183611f3c565b9150611112600a86611f6e565b61111d906030611d62565b60f81b81838151811061113257611132611f82565b60200101907effffffffffffffffffffffffffffffffffffffffffffffffffffffffffffff1916908160001a90535061116c600a86611f09565b94506110f4565b816001600160a01b0316836001600160a01b031614156111d55760405162461bcd60e51b815260206004820152601960248201527f4552433732313a20617070726f766520746f2063616c6c6572000000000000006044820152606401610505565b6001600160a01b03838116600081815260056020908152604080832094871680845294825291829020805460ff191686151590811790915591519182527f17307eab39ab6107e8899845ad3d59bd9653f200f220920489ca2b5937696c31910160405180910390a3505050565b61124d848484610e67565b6112598484848461139b565b6109ba5760405162461bcd60e51b815260206004820152603260248201527f4552433732313a207472616e7366657220746f206e6f6e20455243373231526560448201527131b2b4bb32b91034b6b83632b6b2b73a32b960711b6064820152608401610505565b60606112cb82610af3565b60006112e260408051602081019091526000815290565b905060008151116113025760405180602001604052806000815250610aec565b8061130c84611041565b6040516020016105f2929190611ec4565b61132783836114f3565b611334600084848461139b565b6105a65760405162461bcd60e51b815260206004820152603260248201527f4552433732313a207472616e7366657220746f206e6f6e20455243373231526560448201527131b2b4bb32b91034b6b83632b6b2b73a32b960711b6064820152608401610505565b60006001600160a01b0384163b156114e857604051630a85bd0160e11b81526001600160a01b0385169063150b7a02906113df903390899088908890600401611f98565b602060405180830381600087803b1580156113f957600080fd5b505af1925050508015611429575060408051601f3d908101601f1916820190925261142691810190611fd4565b60015b6114ce573d808015611457576040519150601f19603f3d011682016040523d82523d6000602084013e61145c565b606091505b5080516114c65760405162461bcd60e51b815260206004820152603260248201527f4552433732313a207472616e7366657220746f206e6f6e20455243373231526560448201527131b2b4bb32b91034b6b83632b6b2b73a32b960711b6064820152608401610505565b805181602001fd5b6001600160e01b031916630a85bd0160e11b149050610ac9565b506001949350505050565b6001600160a01b0382166115495760405162461bcd60e51b815260206004820181905260248201527f4552433732313a206d696e7420746f20746865207a65726f20616464726573736044820152606401610505565b6000818152600260205260409020546001600160a01b0316156115ae5760405162461bcd60e51b815260206004820152601c60248201527f4552433732313a20746f6b656e20616c7265616479206d696e746564000000006044820152606401610505565b6001600160a01b03821660009081526003602052604081208054600192906115d7908490611d62565b9091555050600081815260026020526040808220805473ffffffffffffffffffffffffffffffffffffffff19166001600160a01b03861690811790915590518392907fddf252ad1be2c89b69c2b068fc378daa952ba7f163c4a11628f55a4df523b3ef908290a45050565b82805461164e90611990565b90600052602060002090601f01602090048101928261167057600085556116b6565b82601f1061168957805160ff19168380011785556116b6565b828001600101855582156116b6579182015b828111156116b657825182559160200191906001019061169b565b506116c29291506116c6565b5090565b5b808211156116c257600081556001016116c7565b6001600160e01b03198116811461064f57600080fd5b60006020828403121561170357600080fd5b8135610aec816116db565b60005b83811015611729578181015183820152602001611711565b838111156109ba5750506000910152565b6000815180845261175281602086016020860161170e565b601f01601f19169290920160200192915050565b602081526000610aec602083018461173a565b60006020828403121561178b57600080fd5b5035919050565b80356001600160a01b03811681146117a957600080fd5b919050565b600080604083850312156117c157600080fd5b6117ca83611792565b946020939093013593505050565b6000806000606084860312156117ed57600080fd5b6117f684611792565b925061180460208501611792565b9150604084013590509250925092565b60006020828403121561182657600080fd5b610aec82611792565b6000806040838503121561184257600080fd5b61184b83611792565b91506020830135801515811461186057600080fd5b809150509250929050565b634e487b7160e01b600052604160045260246000fd5b6000806000806080858703121561189757600080fd5b6118a085611792565b93506118ae60208601611792565b925060408501359150606085013567ffffffffffffffff808211156118d257600080fd5b818701915087601f8301126118e657600080fd5b8135818111156118f8576118f861186b565b604051601f8201601f19908116603f011681019083821181831017156119205761192061186b565b816040528281528a602084870101111561193957600080fd5b82602086016020830137600060208483010152809550505050505092959194509250565b6000806040838503121561197057600080fd5b61197983611792565b915061198760208401611792565b90509250929050565b600181811c908216806119a457607f821691505b602082108114156119c557634e487b7160e01b600052602260045260246000fd5b50919050565b600081516119dd81856020860161170e565b9290920192915050565b7f3c73766720786d6c6e733d22687474703a2f2f7777772e77332e6f72672f323081527f30302f73766722207072657365727665417370656374526174696f3d22784d6960208201527f6e594d696e206d656574222076696577426f783d22302030203335302033353060408201527f223e00000000000000000000000000000000000000000000000000000000000060608201527f7374796c653e2e62617365207b2066696c6c3a2077686974653b20666f6e742d60628201527f66616d696c793a2073657269663b20666f6e742d73697a653a20313470783b2060828201527f7d3c2f7374796c653e000000000000000000000000000000000000000000000060a28201527f3c726563742077696474683d223130302522206865696768743d22313030252260ab8201527f2066696c6c3d22626c61636b22202f3e0000000000000000000000000000000060cb8201527f3c7465787420783d223530252220793d223430252220636c6173733d2262617360db8201527f652220646f6d696e616e742d626173656c696e653d226d6964646c652220746560fb8201527f78742d616e63686f723d226d6964646c65223e0000000000000000000000000061011b8201527f466967687465727300000000000000000000000000000000000000000000000061012e8201527f203c2f746578743e0000000000000000000000000000000000000000000000006101368201526000610aec611cde611cb5611caf611c8661013e87017f3c7465787420783d223530252220793d223530252220636c6173733d2262617381527f652220646f6d696e616e742d626173656c696e653d226d6964646c652220746560208201527f78742d616e63686f723d226d6964646c65223e00000000000000000000000000604082015260530190565b7f4c6576656c733a00000000000000000000000000000000000000000000000000815260070190565b866119cb565b7f3c2f746578743e00000000000000000000000000000000000000000000000000815260070190565b7f3c2f7376673e0000000000000000000000000000000000000000000000000000815260060190565b7f646174613a6170706c69636174696f6e2f6a736f6e3b6261736536342c000000815260008251611d3f81601d85016020870161170e565b91909101601d0192915050565b634e487b7160e01b600052601160045260246000fd5b60008219821115611d7557611d75611d4c565b500190565b7f7b0000000000000000000000000000000000000000000000000000000000000081527f226e616d65223a2022436861696e20426174746c657320230000000000000000600182015260008351611dd881601985016020880161170e565b7f222c00000000000000000000000000000000000000000000000000000000000060199184019182018190527f226465736372697074696f6e223a2022426174746c6573206f6e20636861696e601b830152603b8201527f22696d616765223a202200000000000000000000000000000000000000000000603d8201528351611e6881604784016020880161170e565b7f2200000000000000000000000000000000000000000000000000000000000000604792909101918201527f7d000000000000000000000000000000000000000000000000000000000000006048820152604901949350505050565b60008351611ed681846020880161170e565b835190830190611eea81836020880161170e565b01949350505050565b634e487b7160e01b600052601260045260246000fd5b600082611f1857611f18611ef3565b500490565b6000816000190483118215151615611f3757611f37611d4c565b500290565b600082821015611f4e57611f4e611d4c565b500390565b6000600019821415611f6757611f67611d4c565b5060010190565b600082611f7d57611f7d611ef3565b500690565b634e487b7160e01b600052603260045260246000fd5b60006001600160a01b03808716835280861660208401525083604083015260806060830152611fca608083018461173a565b9695505050505050565b600060208284031215611fe657600080fd5b8151610aec816116db56fe4142434445464748494a4b4c4d4e4f505152535455565758595a6162636465666768696a6b6c6d6e6f707172737475767778797a303132333435363738392b2fa264697066735822122015a38b4821c3842fd4d94d1012a17184379ffd8fc79e152ed3342b84a257dcb064736f6c63430008090033",
  "linkReferences": {},
  "deployedLinkReferences": {}
}